:020000040800F2
:10000000A00600200D040008E1010008E30100083B
:10001000E7010008EB010008EF0100080000000004
:10002000000000000000000000000000F3010008D4
:10003000F501000800000000F7010008F9010008C0
:1000400027040008270400082704000827040008E4
:1000500027040008270400082704000827040008D4
:1000600027040008270400082704000827040008C4
:1000700027040008270400082704000827040008B4
:1000800027040008270400082704000827040008A4
:100090002704000827040008270400082704000894
:1000A0002704000827040008270400082704000884
:1000B0002704000827040008270400082704000874
:1000C0002704000827040008270400082704000864
:1000D000270400087B1800082704000827040008EC
:1000E0002704000827040008270400082704000844
:1000F0002704000827040008270400082704000834
:100100002704000827040008270400082704000823
:100110002704000827040008270400082704000813
:100120002704000827040008270400082704000803
:1001300027040008270400082704000827040008F3
:1001400027040008270400082704000827040008E3
:1001500027040008270400082704000827040008D3
:1001600027040008270400082704000827040008C3
:1001700027040008270400082704000827040008B3
:100180002704000827040008DFF80CD002F0A4F8C8
:10019000004800479D010008A0060020A82000F0AC
:1001A0005DFF4FF4E13001F016FB4FF4A06000F06A
:1001B0003FF901F0A7FB01F0EEFB0A2000F0B0FFD1
:1001C00001F078FC01F002FE044A4CF2503140F696
:1001D000B83001F0F0FC00BFFEE7000000B4C4043A
:1001E000704700BFFEE700BFFEE700BFFEE700BFAD
:1001F000FEE7704770477047704700000CB500205D
:10020000019000907648006840F48030744908609E
:1002100000BF7348006800F4003000900198401C53
:100220000190009818B90198B0F5A04FF1D16C4831
:10023000006800F4003010B10120009001E00020BF
:1002400000900098012846D165484030006840F091
:1002500080506349403108606248006840F4404083
:10026000604908605E48083000685D4908310860F0
:100270000846006840F4004008600846006840F402
:10028000A05008605848091F0860081F006840F027
:100290008070091F086000BF5148006800F00070BE
:1002A0000028F9D040F20570504908604C480830E9
:1002B000006820F003004A490831086008460068D9
:1002C00040F00200086000BF45480830006800F0B8
:1002D0000C000828F8D10CBD10B54548006840F462
:1002E0007000434908603E48006840F001003C4906
:1002F000086000203A4908310860394800683D49E3
:100300000840374908603C48091D0860081F00681C
:1003100020F48020091F0860002031490C3108605A
:10032000FFF76CFF4FF0006031498039086010BD65
:1003300070B500200022022300240221284D083538
:100340002D6805F00C0020B1042806D0082834D10F
:1003500007E02A4D2A4E356033E02A4D284E35609D
:100360002FE01F4D2D1D2D68C5F380541C4D2D1DF4
:100370002D6805F03F0154B1224DB5FBF1F5184E43
:10038000361D3668C6F3881605FB06F209E01B4DDC
:10039000B5FBF1F5124E361D3668C6F3881605FB1F
:1003A00006F20F4D2D1D2D68C5F301456D1C6B0028
:1003B000B2FBF3F5124E356003E0104D104E356080
:1003C00000BF00BF064D08352D68C5F303150E4E5E
:1003D000705D0B4D2D68C540094E356070BD000045
:1003E000003802400070004008544007003C0240C2
:1003F00088ED00E0FFFFF6FE103000240024F4003A
:100400000000002000127A00040000200648804707
:1004100006480047FEE7FEE7FEE7FEE7FEE7FEE7E9
:10042000FEE7FEE7FEE7FEE7D902000889010008C3
:1004300032490143324A1160704770B500210023F0
:100440000F22C4781CB32E4C246804F4E064C4F575
:10045000E064C4F30721C1F10404E3B20A41447823
:100460009C40E1B28478144021430C07210E254CB6
:1004700005786155047804F01F050124AC40057827
:100480006D11AD0005F1E025C5F8004109E00478E3
:1004900004F01F050124AC401B4D0678761145F889
:1004A000264070BD194A0A400243154B1B1F1A60B3
:1004B000704739B1124A121D12680243104B1B1DBE
:1004C0001A6006E00E4A121D126882430C4B1B1D77
:1004D0001A607047042808D14FF0E021096941F003
:1004E00004014FF0E022116107E04FF0E0210969BB
:1004F00021F004014FF0E022116170470000FA057D
:100500000CED00E000E400E080E100E080FFFF1F70
:1005100010B504469848844208D10121084601F0EC
:1005200064F80021012001F060F876E093488442ED
:1005300008D10121022001F058F80021022001F029
:1005400054F86AE08E48844208D10121042001F069
:100550004CF80021042001F048F85EE0894884420C
:1005600008D10121082001F040F80021082001F005
:100570003CF852E08448844208D10121102001F067
:1005800034F80021102001F030F846E07F48844222
:1005900008D10121202001F028F80021202001F0BD
:1005A00024F83AE07A48844208D10121402001F041
:1005B0001CF80021402001F018F82EE07548844214
:1005C00008D10121802001F010F80021802001F0E5
:1005D0000CF822E07048844208D10121801501F016
:1005E00004F80021A01501F000F816E06B488442E1
:1005F00008D10121401500F0F8FF0021601500F03E
:10060000F4FF0AE06648844207D10121001500F09A
:10061000ECFF0021201500F0E8FF10BDF0B50A4600
:1006200000210023002400BF3DE0012505FA01F36D
:10063000156805EA03049C4234D105684F0003267F
:10064000BE40B543056015794E00B5400668354398
:1006500005601579012D02D01579022D16D1856816
:100660004F000326BE40B543856055794E00B54026
:10067000866835438560456801268E40B5434560F0
:10068000456896798E40B6B235434560C5684F00DF
:100690000326BE40B543C560D5794E00B540C66857
:1006A0003543C560491C1029BFD3F0BD4FF6FF711B
:1006B00001600021017141718171C171704708B5FC
:1006C0004FF480320092009A0A430092009AC2616D
:1006D000C161009AC261C2690092C269009208BDFC
:1006E0000246002013690B400BB1012000E00020FE
:1006F00070470146086980B270470246002053697E
:100700000B400BB1012000E0002070470146486912
:1007100080B2704701837047418370470AB10183FB
:1007200000E0418370474161704742694A4042613D
:100730007047F0B5002300244D07ED0E02FA05F3D3
:10074000CE1000F1200555F826504E07F70E0F2663
:10075000BE40B543CF1000F1200646F82750CE101A
:1007600000F1200555F8265045EA0304CE1000F1AB
:10077000200545F82640F0BD00000240000402407C
:1007800000080240000C0240001002400014024029
:1007900000180240001C02400020024000240240D9
:1007A0000028024010B50446FA48844208D10121CD
:1007B000102000F05EFF0021102000F05AFF57E0EB
:1007C000F548844209D10121480400F041FF00218D
:1007D0004FF4003000F03CFF4AE0F048844209D179
:1007E0000121880400F034FF00214FF4802000F044
:1007F0002FFF3DE0EA48844209D10121C80400F0FE
:1008000027FF00214FF4002000F022FF30E0E548F0
:10081000844209D10121080500F01AFF00214FF49C
:10082000801000F015FF23E0DF48844208D1012149
:10083000202000F01EFF0021202000F01AFF17E00A
:10084000DA48844209D10121880700F001FF002124
:100850004FF0804000F0FCFE0AE0D548844207D10A
:100860000121400500F0F4FE0021600500F0F0FEDB
:1008700010BD2DE9FF4705460E460024A14600BFE6
:10088000A046B08900B100BF2C8A24F44054F088FF
:1008900004432C82AC8941F20C608443B0883189D6
:1008A0000843718908430443AC81AC8A24F4407442
:1008B000B0890443AC82684600F05BFDB5488542D0
:1008C00002D0B948854202D1DDF80C9001E0DDF894
:1008D0000890A88900F4004040B109EBC90000EB82
:1008E000091031684900B0FBF1F707E009EBC900D6
:1008F00000EB091031688900B0FBF1F76420B7FB09
:10090000F0F004012009642101FB1078A88900F4AB
:10091000004040B1322000EBC800B0FBF1F000F025
:100920000700044308E0322000EB08106421B0FB0C
:10093000F1F000F00F0004432C81BDE8FF874FF475
:100940001651016000218180C18001810C2141810B
:1009500000218181704710B502460020108A20F4E2
:1009600070600B884C8823438C882343CC882343B6
:100970001843108210BD0021018041808180C18018
:10098000704721B1828942F40052828104E0828959
:100990004DF6FF731A4082817047028B02F47F424A
:1009A0000283028B0A430283704721B1828942F499
:1009B0000042828103E08289C2F30E028281704785
:1009C00021B1828A42F40062828204E0828A4FF27C
:1009D000FF731A4082827047C1F308028280704719
:1009E00001468888C0F308007047028A4FF6F0730A
:1009F0001A400282028A0A430282704721B1828928
:100A000042F00202828104E082894FF6FD731A40AF
:100A10008281704782894FF2FF731A4082818289F6
:100A20000A4382817047028A4FF6DF731A400282BE
:100A3000028A0A430282704721B1028A42F480424C
:100A4000028204E0028A4BF6FF731A40028270476A
:100A5000818941F001018181704721B1828A42F090
:100A60000802828204E0828A4FF6F7731A4082827B
:100A70007047028BD2B20283028B42EA01220283C8
:100A8000704721B1828A42F02002828204E0828A89
:100A90004FF6DF731A408282704721B1828A42F09A
:100AA0001002828204E0828A4FF6EF731A4082823B
:100AB0007047828A4FF6FB731A408282828A0A4309
:100AC0008282704721B1828A42F00202828204E06F
:100AD000828A4FF6FD731A40828270471AB1838A68
:100AE0000B43838202E0838A8B4383827047F0B595
:100AF0000346002400260025002040F66A17B9426C
:100B000000D100BF1846C1F3421401F01F060127AF
:100B100007FA06F5012C01D10C3004E0022C01D1BA
:100B2000103000E014301AB107682F43076002E06C
:100B30000768AF430760F0BD02460020B1F5007FB3
:100B400000D100BF13880B400BB1012000E0002052
:100B5000704701F40072B2F5007F00D100BFCA43B4
:100B60000280704770B50246002400230025002053
:100B700040F66A16B14200D100BFC1F3421501F040
:100B80001F03012606FA03F3012D13D19689334082
:100B900017E0000000100140004400400048004001
:100BA000004C00400050004000140140007800401C
:100BB000007C0040022D02D1168A334001E0968A63
:100BC00033400C12012606FA04F41688344013B19F
:100BD0000CB1012000E0002070BD10B50022002300
:100BE00040F66A14A14200D100BF0A1201249440C9
:100BF000A3B2DC43048010BD10B50121080200F04F
:100C000038FD00214FF4807000F033FD10BD30B589
:100C10000246002000235068F84C20400D790C68F3
:100C200044EA0524204350609068F54C2040D1E907
:100C300003542C438D682C434D7944EA45042043EA
:100C40009060D06A20F470000C7D641EE4B22343EF
:100C500040EA0350D06230BD002101600171417152
:100C60008160C16001610121017570470021E54A81
:100C70001168E54A1140D0E900231A4383681A43FA
:100C8000C3681A431143E14AC2F8041370470021B4
:100C9000016041608160C160704721B1826842F0AB
:100CA0000102826003E0826822F0010282607047E4
:100CB0000A4600214168D64B1940114341607047F4
:100CC0004162826270470A460021416821F01F019B
:100CD00011434160704738B1CA49096841F40001C5
:100CE000CA4AC2F8041306E0C649096821F40001A3
:100CF000C64AC2F80413704738B1C249096841F4C2
:100D00008001C24AC2F8041306E0BE49096821F412
:100D10008001BE4AC2F804137047F0B504460D4680
:100D200000200021092D11DDE068A5F10A0606EB7F
:100D30004607072606FA07F18843A5F10A0606EBDF
:100D4000460603FA06F10843E0600CE0206905EB73
:100D50004507072606FA07F1884305EB450603FA1F
:100D600006F108432061072A0FDA606B561E06EB76
:100D700086071F2606FA07F18843561E06EB8606ED
:100D800005FA06F10843606322E00D2A0FDA206BB2
:100D9000D61F06EB86071F2606FA07F18843D61FE3
:100DA00006EB860605FA06F10843206310E0E06AC8
:100DB000A2F10D0606EB86071F2606FA07F1884307
:100DC000A2F10D0606EB860605FA06F10843E0627D
:100DD000F0BD816841F0804181607047014600208C
:100DE0008A6802F080420AB1012000E000207047CA
:100DF00021B1826842F48062826003E0826822F45A
:100E000080628260704721B1826842F00202826093
:100E100003E0826822F002028260704710B50A4641
:100E200000210023416821F46041531E41EA43310F
:100E3000416010BD21B1426842F40062426003E0AB
:100E4000426822F40062426070470146C86C80B27A
:100E500070476C48001D0068704721B1826842F4F9
:100E60008072826003E0826822F480728260704740
:100E700021B1826842F40072826003E0826822F449
:100E800000728260704738B15E49096841F40051D0
:100E90005E4AC2F8041306E05A49096821F4005179
:100EA0005A4AC2F804137047F0B5044615460020AC
:100EB00000220026092911DDE068A1F10A0707EBED
:100EC000470C072707FA0CF29043A1F10A0707EB3A
:100ED000470703FA07F21043E0600CE0206901EBDA
:100EE000410C072707FA0CF2904301EB410703FA84
:100EF00007F210432061A06BC0F30156EF1C06F10E
:100F0000010CA7EB0C0707EB870C1F2707FA0CF265
:100F10009043EF1C06F1010CA7EB0C0707EB8707CA
:100F200001FA07F21043A063F0BD10B50A46002194
:100F30000023816B21F44011531E41EA0351816368
:100F400010BD08B5002300930090009B0B44009354
:100F5000009B1A6008BD0A460021816821F47021B7
:100F60001143816070470A460021816821F44011D5
:100F7000114381607047816841F48001816070474E
:100F8000014600208A6802F480020AB1012000E0D4
:100F90000020704721B1426842F48062426003E061
:100FA000426822F480624260704721B1426842F494
:100FB0008052426003E0426822F4805242607047EF
:100FC00008B5024600200090009201F12800009B25
:100FD000184400900098006880B208BD10B50B4618
:100FE0000021D9B2012404FA01F11AB144680C437A
:100FF000446002E044688C43446010BDFFFEFFFC87
:10100000FDF7FFC004230140E030FCFF0020014059
:10101000FFFD3FFF0246002013680B400BB101208B
:1010200000E000207047CA430260704770B5024676
:101030000020002300240B12556801268E4005EA8B
:10104000060415681D4015B10CB1012000E0002018
:1010500070BD00220A12D3430360704710B50446E6
:101060006FF00400FFF736FAE11704EB5171C1F39A
:10107000C701394A11701046007800EB4001C1EBFE
:10108000C0104FF6FF7101EAC0003449088010BD5E
:101090000146314A12784A434FF0E0235A61002258
:1010A0009A611A46126942F001021A6100BF4FF0BC
:1010B000E022106900F001021AB100F48032002A27
:1010C000F5D04FF0E022126922F001024FF0E02348
:1010D0001A6100229A6170470146204A12884A43E9
:1010E0004FF0E0235A6100229A611A46126942F0D9
:1010F00001021A6100BF4FF0E022106900F0010206
:101100001AB100F48032002AF5D04FF0E0221269C3
:1011100022F001024FF0E0231A6100229A61704729
:1011200070B504464FF4077094FBF0F0C6B24FF46C
:10113000077094FBF0F100FB114085B205E04FF41D
:101140000770FFF7C9FF701EC6B2002EF7D115B1A8
:101150002846FFF7C1FF70BD1400002016000020D4
:10116000F948006840F00100F74908600020F6499E
:1011700008310860F4480068F4490840F249086002
:10118000F348091D0860F348EF4984310860F048CE
:101190001038091D0860EC48006820F48020EA49F6
:1011A00008600020E8490C310860E7498C3108608C
:1011B00070470021E44A921C117011460870704774
:1011C00010B501460022002300204A11012A02D155
:1011D000DD4C236808E0022A03D1DB4C703423681D
:1011E00002E0D94C7434236801F01F0201249440BA
:1011F0001C400CB1012000E0002010BD38B50020DB
:1012000000900024002500BF3120FFF7D9FF0546DC
:101210000098401C00900098B0F5A04F01D0002D20
:10122000F2D03120FFF7CCFF08B1012400E0002408
:10123000204638BD01460020C34A106820F0F8005F
:1012400040EAC10010607047C34908607047002140
:10125000BD4A703211701170012802D004280AD1E1
:1012600004E00121B84A7032117005E00521B64A48
:101270007032117000E000BF00BF7047B7490860CE
:10128000704770B5049C41EA82150126C6EB5306EF
:1012900045EA0645054345EA0465AB4E361D356013
:1012A00070BDAD4908667047820142EA0172A64BE3
:1012B00084331A607047A8498866704710B5830167
:1012C00043EA016343EA02739F4C8834236010BDF4
:1012D000A14908677047A049C864704702460020CA
:1012E000994B0833186820F0EC6042EA0103184378
:1012F000954B08331860704702460020924B083324
:10130000186820F0784042EA010318438E4B0833F6
:1013100018607047014600208B4A0832106820F0A0
:10132000030008431060704787480830006800F0E9
:101330000C00704701460020834A0832106820F0F4
:10134000F000084310607047014600207E4A0832D2
:10135000106820F4E05008431060704701460020F8
:10136000794A0832106820F4604040EAC1001060F9
:101370007047F0B500210022002402250026022338
:10138000714F08373F6807F00C0121B1042905D0DF
:10139000082937D105E0724F076036E0714F0760CA
:1013A00033E0694F3F1D3F68C7F38056664F3F1DCE
:1013B0003F6807F03F036EB16A4FB7FBF3F7DFF802
:1013C00088C10CF1040CDCF800C0CCF3881C07FBCE
:1013D0000CF40CE0624FB7FBF3F7DFF86CC10CF1D3
:1013E000040CDCF800C0CCF3881C07FB0CF4564F4F
:1013F0003F1D3F68C7F301477F1C7D00B4FBF5F735
:10140000076002E0564F076000BF00BF4E4F08372D
:101410003F6807F0F0010909534F7A5C0768D7402D
:101420004760494F08373F6807F4E051890A4E4F3B
:101430007A5C4768D7408760434F08373F6807F4B6
:101440006041490B484F7A5C4768D740C760F0BDA0
:10145000002100F44072B2F5407F0AD13A4A0832C6
:10146000116821F4F811414A02401143364A08320A
:101470001160354A70321268C0F30B031A43324BC5
:1014800070331A60704735494439086070473349F2
:1014900040390860704736490860704701460020AF
:1014A000294A8C32106820F01F004A1E1043264A39
:1014B0008C321060704701460020234A8C3210683D
:1014C00020F4F8504A1E40EA02201F4A8C32106075
:1014D0007047014600201C4A8C32106820F44010EE
:1014E00008431060704701460020174A8C3210688C
:1014F00020F4400008431060704701460020124A63
:101500008C32106820F4403008431060704719494D
:101510000860704739B10C4A3032126802430A4BF6
:1015200030331A6006E0084A303212688243064BB4
:1015300030331A607047F9B1034A343212680243FB
:10154000014B34331A601CE000380240FFFFF6EA1A
:10155000103000240030002000004742800E474237
:101560000024F40000127A0018000020FFFCFF0F96
:101570005C014742E01147428F4A126882438E4B1A
:101580001A60704739B18C4A121D126802438A4BA7
:101590001B1D1A6006E0884A121D12688243864BA2
:1015A0001B1D1A60704739B1834A0C32126802431E
:1015B000814B0C331A6006E07F4A0C32126882437A
:1015C0007D4B0C331A60704739B17B4A1032126878
:1015D0000243794B10331A6006E0774A10321268E2
:1015E0008243754B10331A60704739B1724A243AFE
:1015F00012680243704B243B1A6006E06E4A243A9C
:10160000126882436C4B243B1A60704739B16A4AB6
:10161000203A12680243684B203B1A6006E0664A93
:10162000203A12688243644B203B1A60704739B1FC
:10163000614A1C3A126802435F4B1C3B1A6006E089
:101640005D4A1C3A126882435B4B1C3B1A60704730
:1016500039B1594A143A12680243574B143B1A6085
:1016600006E0554A143A12688243534B143B1A6001
:10167000704739B1504A103A126802434E4B103B42
:101680001A6006E04C4A103A126882434A4B103BFB
:101690001A60704739B1484A1C3212680243464BFF
:1016A0001C331A6006E0444A1C3212688243424BE3
:1016B0001C331A60704739B13F4A20321268024326
:1016C0003D4B20331A6006E03B4A203212688243C9
:1016D000394B20331A60704739B1374A24321268C7
:1016E0000243354B24331A6006E0334A2432126831
:1016F0008243314B24331A60704739B12E4A2C3261
:10170000126802432C4B2C331A6006E02A4A2C3212
:1017100012688243284B2C331A60704739B1264A2D
:10172000303212680243244B30331A6006E0224AFA
:10173000303212688243204B30331A6070470128E0
:1017400008D11D493C31096841F008011A4A3C3270
:10175000116007E018493C31096821F00801164A78
:101760003C321160704739B1134A273A127802436C
:10177000114B273B1A7006E00F4A273A1278824332
:101780000D4B273B1A7070470B484030006840F003
:101790008070094940310860704701460020064AC0
:1017A000283A12680A400AB1012000E00020704780
:1017B00001492639087070473438024000BF70472D
:1017C00000BF4C4A128802F04002002AF9D0C2B28F
:1017D000484B9A80704710B588B0044601210846EE
:1017E000FFF798FE01211020FFF7EEFE07220921E6
:1017F0004148FEF79EFF07220A213F48FEF799FF66
:101800004FF4C060069002208DF81C008DF81D007A
:1018100000208DF81E0001208DF81F0006A9364813
:10182000FEF7FCFE02940020ADF80C00ADF80E00AF
:10183000ADF81000ADF814000C20ADF8120002A9AC
:101840002C48FFF716F801212A48FFF79AF80122E1
:1018500040F225512748FFF74AF925208DF804006A
:1018600000208DF805008DF8060001208DF8070096
:1018700001A8FEF7E2FD08B010BD10B540F22551F9
:101880001C48FFF76FF910B31A48FFF7A9F8C4B264
:101890001A48008800F40040C8B91848008800F4CD
:1018A000804060B10A2C03D000201449088020E059
:1018B0001248008840F400401049088019E00D2CBF
:1018C00006D10E48008840F480400C49088010E0A2
:1018D0000A480088C0F30D0009490C5407480088E5
:1018E000401C0649088008460088C72801DD002002
:1018F000088010BD00100140000002402C000020B4
:10190000440000201CB501210820FFF703FE01213F
:101910004020FFF7FFFD01208DF8040000208DF826
:1019200006005520009002208DF8070000208DF859
:1019300005006946FE48FEF771FE01208DF804009F
:1019400000208DF806004FF42850009002208DF8FA
:10195000070000208DF805006946F648FEF75EFE98
:101960000020F5490860F549C1F88802F2490831BC
:1019700008601CBD10B50020EF4910390860012037
:10198000EE49C1F88002C820FFF782FB0020EA4937
:101990001039086010BD10B50020E9490860E7491A
:1019A000C1F89002E44908390860E3491039086039
:1019B000E349083108600120E249C1F8B4024FF45C
:1019C000FA60FFF765FB0020DD490831086010BDB3
:1019D0002DE9F05F06460F46904699464FF0000A03
:1019E000D3460024B24600BF1EE00020D449086060
:1019F0000AF08000802804D10120D149083908600C
:101A000003E00020CE490839086000BF00BF00BFD6
:101A10000120CB49086000BF00BF00BF4FEA4A6009
:101A20004FEA106A601CC4B2082CDEDB00BF00BFA6
:101A300000BF0A20FFF72CFB0020C14908600025E9
:101A40002FE017F805B000241EE00020BC49086014
:101A50000BF08000802804D10120B94908390860C2
:101A600003E00020B6490839086000BF00BF00BF8E
:101A70000120B349086000BF00BF00BF4FEA4B60C0
:101A80004FEA106B601CC4B2082CDEDB00BF00BF45
:101A900000BF0A20FFF7FCFA0020A9490860681C73
:101AA000C5B24545CDDBB9F1010F01D1FFF762FFAA
:101AB000BDE8F09F10B501230422A3490020FFF7E1
:101AC00087FF01230322A1491846FFF781FF10BDBC
:101AD00010B5044600201CE00021994A116004F072
:101AE0008001802904D10121954A083A116003E060
:101AF0000021934A083A116000BF00BF00BF0121D6
:101B00008F4A116000BF00BF00BF61060C0E411C70
:101B1000C8B20828E0DB00BF00BF00BF0A20FFF703
:101B2000B7FA00208649086010BD2DE9F047054648
:101B30000E4617464FF00008C146002433E015F862
:101B400004804FF0000920E000207D49086008F083
:101B50008000802804D1012079490839086003E019
:101B6000002077490839086000BF00BF00BF01208E
:101B70007349086000BF00BF00BF4FEA48604FEAEA
:101B8000106809F1010000F0FF09B9F1080FDBDB73
:101B900000BF00BF00BF0A20FFF77AFA00206849A3
:101BA0000860601CC4B2B442C9DB012F01D1FFF749
:101BB000E1FEBDE8F0872DE9F0432DED108B83B0F9
:101BC00007468846914662A00068029061A00068BE
:101BD000019061A00068009000243BE0204600F0E6
:101BE000C7FA41EC1F0B9FED5D0B53EC102B00F07F
:101BF000DEF941EC1E0B9FED5B0B53EC102B00F05C
:101C000048FA41EC1D0BB0EE4D0AF0EE6D0A00F003
:101C1000BFFBB0EE40BAF0EE60BA404600F0A8FA62
:101C200041EC1C0B53EC1B2B00F0C1F941EC190BE0
:101C3000484600F09DFA41EC1A0B53EC192B00F0CA
:101C40000FF941EC180B00F0A0FA484941F82400C4
:101C5000601C84B2642CC1DB4548B0FBF7F085B250
:101C600044490D70281248700123042202A9002063
:101C7000FFF7AEFE0123032201A91846FFF7A8FED5
:101C8000012305223B490720FFF7A2FE00202A4935
:101C900008602A49C1F88802002201216846FFF73E
:101CA00044FF002621E0314951F8260000F060FA97
:101CB00041EC190B9FED300B53EC102B00F077F932
:101CC00041EC180B00F061FA0446200EFFF700FF0C
:101CD000C4F30740FFF7FCFEC4F30720FFF7F8FE4C
:101CE000E0B2FFF7F5FE701C86B2642EDBDBFFF777
:101CF00041FE03B0BDEC108BBDE8F08330B52DED97
:101D0000048B81B0054600200090284600F030FA90
:101D100041EC190B9FED180B53EC102B00F047F919
:101D200041EC180B00F031FA0446E0B228E0000064
:101D3000000C024000180240908241420080414263
:101D4000AC024342000043422E000020320000203B
:101D5000800000000000A4000B0000001F85EB5174
:101D6000B81E19400000000000C058400C010020BF
:101D700040420F00350000203A8C30E28E79254039
:101D80008DF80300200A8DF80200200C8DF8010068
:101D9000200E8DF800000123042269461046FFF74B
:101DA00017FE01B0BDEC048B30BD38B504460020F1
:101DB0000090E0B28DF8010020128DF800000123A0
:101DC000022269461046FFF703FE38BD1CB501210B
:101DD0000846FFF79FFB03208DF8040000208DF8D4
:101DE00006008020009000208DF8070002208DF86A
:101DF000050069461848FEF711FC1CBD00B58BB004
:101E0000FEF7FAFE01210802FFF7DEFB01208DF844
:101E1000190000200990079001208DF8280000206B
:101E200005908DF818000023012207210B48FEF7CA
:101E300074FF05A90948FEF7EAFE002001904FF45F
:101E40000030029001A8FEF711FF01210348FEF7C0
:101E500024FF0BB000BD0000000002400020014044
:101E60002DE9FE4F804681EA0300C00F0C4600902A
:101E700021F0004123F00045B8EB0200A94105D252
:101E80004046214690461C460B46024623F0004041
:101E9000104347D0270DC7F30A00C3F30A5102903D
:101EA000401A019040286BDAC3F3130040F4801B02
:101EB0000098924620B10023D2EB030A63EB0B0B90
:101EC00001985946C0F14002504600F077F90646A5
:101ED0000D4650465946019A00F08FF910EB080064
:101EE0006141002487EA115284EAE7731A4340D023
:101EF000009A62B3019A012A4FEA075215DC001BCF
:101F000061EB02014FF0004202EA0752CDE90042C4
:101F1000001C41F5801132462B4600F08FF903B0CA
:101F2000BDE8F08F40462146F9E7001B61EB020156
:101F3000001C41F5801300185B412018A2F5001722
:101F400047EB030140EAD570B6196D4111E06D0809
:101F50004FEA360645EAC0754FEA0752001B61EBAF
:101F60000201001C41F5801149084FEA30000019B8
:101F7000514132462B4603B0BDE8F04F00F04FB957
:101F80000098012240000023D0EB020263EBE073D3
:101F9000009821464FEAE074B8EB000061EB0401C1
:101FA000E9E783F000435BE781F0004158E72DE962
:101FB000FE4F81EA030404F0004421F00041009444
:101FC0004FF0000B23F0004350EA01045ED052EAC8
:101FD00003045BD0C3F30A54C1F30A552C44A4F2A2
:101FE000F3340194A0FB0254C1F3130141F48011B6
:101FF000C3F3130343F4801301FB024400FB034EBD
:10200000840A970A44EA815447EA8357A4FB076885
:1020100002958D0A05FB07854FEA932C04FB0C54AF
:102020002705029D4FEA065847EA1637B5EB080523
:102030006EEB070C870E920E47EA811742EA831275
:10204000A7FB0201B6EB0B0164EB00042B0D43EA86
:102050000C335E1844EB1C50DA465146E7FB020194
:10206000C5F313044FEA0B3343EA14534FEA043227
:10207000019C43EA0603A4F10C040294009CCDE900
:1020800000B400F0DBF803B0BDE8F08F002001469B
:10209000F9E72DE9F04D81EA030404F0004B21F04B
:1020A000004514464FF0000A23F0004150EA0502B3
:1020B00020D054EA01021DD0C5F30A570246C5F3E9
:1020C0001303C1F31300C1F30A5640F4801543F41F
:1020D0008013A7EB0608101BD64608F2FD3873EBF9
:1020E000050002D308F1010801E092185B41B8F144
:1020F000000F03DA00200146BDE8F08D00204FF408
:102100008011064684460EE0171B73EB050705D3C6
:10211000121B63EB050306434CEA010C49084FEA26
:10212000300092185B4150EA0107EDD152EA0300FA
:1021300012D082EA040083EA0501084305D0101B8F
:10214000AB4106D20122002306E000224FF00043FB
:1021500002E06FF0010253101AEB06004CEB08513D
:1021600010EB0A0041EB0B01BDE8F04D00F057B851
:102170000EB540F2334102910021CDE900110A462B
:102180000B4600F05BF803B000BDC1F30A5210B576
:10219000C1F3130140F2FF3341F480119A4201DA96
:1021A000002010BD40F233439A42A2F2334203DCD6
:1021B000524200F012F810BD904010BD202A04DBFE
:1021C000203A00FA02F1002070479140C2F120034A
:1021D00020FA03F3194390407047202A04DB203A89
:1021E00021FA02F00021704721FA02F3D040C2F137
:1021F00020029140084319467047202A06DBCB177E
:10220000203A41FA02F043EAE07306E041FA02F3B1
:10221000D040C2F12002914008431946704710B5E2
:10222000141E73F1000408DA401C41F100019218F9
:102230005B411A4301D120F0010010BD2DE9F04DA2
:1022400092469B4611B1B1FA81F202E0B0FA80F2F7
:1022500020329046FFF7B2FF04460F4640EA0A00DC
:1022600041EA0B0153465A46084313D0114653EA3C
:10227000010019D0C8F140025046FFF7AEFF0546F5
:102280000E46504659464246FFF798FF084305D090
:10229000012004E020463946BDE8F08D00200543CA
:1022A00046EAE0762C4337430A986305E40AA0EB3C
:1022B00008000022FD0A44EA47540A3002D50020F3
:1022C0000146E9E7010510196941DDE908450019F2
:1022D0006941BDE8F04DA2E7064C074D06E0E06815
:1022E00040F0010394E8070098471034AC42F6D35D
:1022F000FDF74EFFE82D0008082E00080EB5C10FAF
:1023000080EAE0700844CA07002140F233438DE8B8
:102310000E000A460B46FFF791FF03B000BD70B5F3
:10232000C1F30A5201F000450024C1F3130140F249
:10233000FF3341F480119A4201DA002070BD40F26F
:1023400033439A42A2F2334203DC5242FFF745FF85
:1023500000E090402C43F1D0404270BD03B401989E
:102360004100009850EAC12018BF04204A0D18BF50
:1023700040F0010040F2FF72B2EB515F08BF40F045
:102380000200012808BF052002B0704700000000CD
:1023900010B52F499FED2C1B2DED020B84B0059835
:1023A00020F000408842DCBF00209DED040B32DDB0
:1023B0002849884209D1049840B94FF0010000F043
:1023C0006FFC00F03DFC06B010BD05DB9DED040B7D
:1023D00000F02AFC06B010BD68469DED040B00F02D
:1023E0003BF810F0030011D0012818D09DED021B1E
:1023F0009DED000B02281AD000F04AFA51EC100BA8
:1024000081F0004106B041EC100B10BD9DED021BA8
:102410009DED000B012000F06FFB06B010BD9DED9F
:10242000021B9DED000B00F033FA06B010BD012039
:1024300000F062FB51EC100B81F0004106B041EC62
:10244000100B10BD000000000000000000000000A4
:10245000FB21E93F0000F07F2DE9F14F04462DED0F
:10246000020B2DED088B8AB09FEDE70B80ED020B80
:10247000139EE74826F0004585420ADC9DED120BCD
:10248000002084ED000B0AB0BDEC088B03B0BDE862
:10249000F08FE0489FEDE0AB9FEDE1BBA84247DD48
:1024A000E14F9FEDE39B9FEDE48B9DED120B53EC11
:1024B0001A2B51EC100B002E1CDDFFF772FD41ECC6
:1024C000100BBD4208D053EC1B2B51EC100BFFF747
:1024D00068FDC4E900010BE053EC192B51EC100B23
:1024E000FFF75FFD53EC182BFFF75BFDC4E900011C
:1024F0000120C8E7FFF7B4FC41EC100BBD4208D047
:1025000053EC1B2B51EC100BFFF7AAFCC4E90001A4
:102510000BE053EC192B51EC100BFFF7A1FC53EC23
:10252000182BFFF79DFCC4E900014FF0FF30AAE72C
:10253000C348A84279DB9DED120B51EC100B00F063
:10254000B5FB41EC180B9FEDC00B53EC102BFFF7C4
:102550002EFD9FEDBF1B53EC112BFFF781FCFFF706
:10256000DEFE0746FFF7CAFE41EC190B53EC1A2BAF
:10257000FFF71DFD53EC182BFFF716FD41EC180B70
:1025800053EC1B2B51EC190BFFF711FDDFF8C8A220
:1025900041EC100B4FEA15580125FA4453EC102B6F
:1025A00051EC180BFFF7FDFC032DC4E900013DD0F1
:1025B000C1F30A5005EB4511A8EB00001139814227
:1025C00034DA0AEB051BB0EE48AA9BED000BF0EEE7
:1025D00068AA53EC102B51EC190BFFF7E8FC41EC07
:1025E0001B0B51EC1A0B53EC1B2BFFF7DAFC41ECE5
:1025F000180B51EC1A0B53EC182BFFF7D2FC53ECD1
:102600001B2BFFF7CEFC9BED020B41EC1A0B53EC9E
:10261000102B51EC190BFFF7CAFC53EC1A2BFFF7E8
:10262000C0FC41EC100B6D1CB8E70EE0002EA8BFFB
:102630003846BFF628AF94ED000B51EC100B81F03B
:102640000041C4E9000178421DE7C6F3130040F4DD
:10265000801EC6F30A50A0F2F530471100F01F05A6
:10266000C5F12000DDF848B00890002006900790E2
:102670000520EC467949002D07EB0002794408BF9C
:1026800051F8221009D051F8223001EB8201AB4001
:102690004A68089922FA01F11943A1FB0E26A1FB11
:1026A0000B131A449A4234BF0123002303EB06089C
:1026B0000CEB8003D3E901A60E448E4234BF012106
:1026C000002192448A4411B1924502D903E0924517
:1026D00001D2012100E00021C3E901A641444CF8E8
:1026E0002010011EA0F10100C4DC029800F100508E
:1026F000850F0298DDE903678000DDF81480FFF79D
:10270000FDFD41EC1A0B3046FFF732FD9FED541BE7
:1027100053EC112BFFF74BFC41EC1B0B3846FFF73A
:1027200027FD9FED511B53EC112BFFF740FC41ECB3
:10273000180B4046FFF71CFD9FED4D1B53EC112B72
:10274000FFF735FC41EC190B51EC180B53EC192B2E
:10275000FFF786FB53EC1B2BFFF782FB53EC1A2B86
:10276000FFF77EFBCDE90801002008909DED080BE6
:1027700053EC1A2B51EC100BFFF713FC53EC1B2BF3
:10278000FFF70FFC53EC182BFFF70BFC53EC192B46
:10279000FFF70AFC9FED381B53EC112BFFF707FCEA
:1027A0009FED370B41EC180B53EC102B9DED080BF4
:1027B00051EC100BFFF7FBFB53EC182BFFF750FB12
:1027C0009FED310B41EC180B53EC102B9DED080BDA
:1027D00051EC100BFFF7EBFB53EC182BFFF740FB12
:1027E00041EC100B139810F0004F06D06D4251ECE5
:1027F000100B81F0004141EC100B284684ED000BDA
:1028000041E60000000000000000000000000000A1
:10281000FB21E93F7CD9024000004054FB21F93FF5
:102820003163621A61B4D03DFB21F93F0000000022
:102830000000601A61B4D03D7370032E8A19A33B67
:10284000FB2139410000000083C8C96D305FE43FBF
:10285000000000000000E03F5A070000A80600004A
:10286000000000000000103E000000000000103CCE
:10287000000000000000103A182D4454FB21F93DDF
:102880003326A611460B113C00000054FB21F93DF4
:1028900010B52DED040B2DED088B82B0B0EE419AF2
:1028A000F0EE619A0B9820F000449FED4BABB4F131
:1028B000795F11DA9DED0A0B51EC100BFFF72FFD3C
:1028C000002801BFB0EE4A0AF0EE6A0A02B0BDEC81
:1028D000088B04BF04B010BD9DED0A0B53EC102B08
:1028E00051EC100BFFF763FB41EC180B3C48062141
:1028F000B0EE480AF0EE680A784400F081F853EC34
:10290000182B51EC100BFFF752FB9DED0A0B41EC1D
:102910001B0B53EC192B51EC100BFFF748FB41EC50
:10292000190B53EC1B2B51EC180BFFF740FB53EC2E
:10293000192BFFF736FB9FED2C0B41EC190B53ECD9
:10294000102B51EC180BFFF732FB41EC100B284811
:10295000844210DA53EC192B51EC100BFFF721FBDA
:1029600053EC1A2BFFF720FB41EC100B02B0BDEC2F
:10297000088B04B010BD1F48A042BCBF9FED1E1BBA
:102980008DED001B06DBA4F50010019000200090E7
:102990009DED001B51EC100B53EC112BFFF701FBCD
:1029A0009DED000B41EC180B53EC102B51EC1A0B66
:1029B000FFF7F7FA41EC1A0B53EC192B51EC180BFB
:1029C000FFF7EFFA53EC1A2BFFF7EEFA41EC100B7E
:1029D000CCE7000000000000000000000000F03F15
:1029E000CC03000000000000000000000000E03FF9
:1029F0003333D33F0000E93F000000000000D23F26
:102A000070B504462DED028B4D1E00EBC500B0EEF7
:102A1000408AF0EE608A90ED000B35F0060017D08A
:102A200053EC182B51EC100BFFF7C1FA41EC100BD3
:102A30006D1E04EBC50090ED001B51EC100B53EC28
:102A4000112BFFF70DFA41EC100B35F00600E7D122
:102A5000022D36D0042D1CD0062D1CBFBDEC028BE0
:102A600070BD53EC182B51EC100BFFF7A0FA94ED4E
:102A70000A1B53EC112BFFF7F3F953EC182BFFF75C
:102A800096FA94ED081B53EC112BFFF7E9F941EC92
:102A9000100B53EC182B51EC100BFFF788FA94ED48
:102AA000061B53EC112BFFF7DBF953EC182BFFF748
:102AB0007EFA94ED040B53EC102BFFF7D1F941ECA7
:102AC000100B53EC182B51EC100BFFF770FA94ED30
:102AD000021B53EC112BFFF7C3F953EC182BFFF734
:102AE00066FA94ED001B53EC112BFFF7B9F9BDEC1E
:102AF000028B41EC100B70BD31B504462DED040B7B
:102B00002DED0A8BB0EE41BAF0EE61BA0B989DED57
:102B10000A0B20F00040B0F1795F0DDA51EC100B98
:102B2000FFF71CFC042808BF00F09AF89DED0A0B83
:102B3000BDEC0A8B05B030BD53EC102B51EC100BE3
:102B4000FFF735FA41EC180B9DED0A0B53EC182BEF
:102B500051EC100BFFF72BFA41EC190B2C48B0EE9F
:102B6000480AF0EE680A05217844FFF749FF9FED17
:102B70002ACBB0EE40AAF0EE60AA9CB353EC1C2B1B
:102B800051EC190BFFF713FA41EC1C0B53EC1A2B09
:102B900051EC190BFFF70BFA9FED210B41EC190BD0
:102BA00053EC102B51EC1B0BFFF701FA53EC192BD4
:102BB000FFF7F7F953EC182BFFF7F9F953EC1B2B40
:102BC000FFF7EFF953EC1C2BFFF7EBF99DED0A1B18
:102BD00053EC112BFFF7E8F9BDEC0A8B05B041EC83
:102BE000100B30BDFFE753EC1A2B51EC180BFFF71D
:102BF000DEF953EC1C2BFFF733F953EC192BFFF7DD
:102C0000D6F99DED0A1B53EC112BFFF729F9E3E7E9
:102C10005402000000000000495555555555C5BFE8
:102C2000000000000000E03F10B553EC102B51EC09
:102C3000100BFFF715F941EC100B10BD0000000060
:102C40009FED050B10B553EC102B51EC100BFFF75B
:102C500020FA41EC100B10BD000000000000000045
:102C60009FED050B10B553EC102B51EC100BFFF73B
:102C70009EF941EC100B10BD000000000000001098
:102C800002E008C8121F08C1002AFAD17047704735
:102C9000002001E001C1121F002AFBD17047000093
:102CA00001490860704700004000002082B0CDE973
:102CB000000121F0004001909DED000B02B051ECAD
:102CC000100B7047000000004C5555555555A53F59
:102CD0007751C1166CC156BF9015CB19A001FA3EB1
:102CE000AD529C804F7E92BEC4B1B4BD9EEE213EDB
:102CF000D43888BEE9FAA8BD00004054FB21F93F52
:102D00003163621A61B4D03D0000601A61B4D03DF5
:102D10007370032E8A19A33B0000002E8A19A33B6F
:102D2000C14920259A837B39000000000000000083
:102D30006E83F9A22915444ED15727FCC0DD34F526
:102D4000999562DB4190433CAB6351FE61C5BBDEAC
:102D50003A6E24B7E0D24D42EA2E49061C92D109C0
:102D60001CEB1DFE3EA729B1F53582E88444BB2E3D
:102D700026709CE9417E5FB439D69139F43953838A
:102D80008B5F849C3B28F9BDFF97F81F0F9805DEE9
:102D90008B112FEF1F6D0A5ACF7E366DB709CB27E7
:102DA000663F464F2DEA5F9EC7BA27757BF1E5EB7C
:102DB000F739073DEA92528AB15FFB6B085D8D1FC0
:102DC000A6F810111111813FD561C119A0012ABFC8
:102DD0007DFEB157E31DC73EEB9C2B8AE6E55ABE4C
:102DE0007CD5CF5A3AD9E53D082E000800000020D6
:102DF00044000000802C00084C2E000844000020F5
:102E00005C060000902C0008007A030A0000000015
:102E1000000000000102030406070809000000008A
:102E20000000000001020304010203040607080970
:102E3000000000000000020020000000A4350C6328
:0C2E400000800000000000000000000006
:040000050800018965
:00000001FF
